:0300000002088073
:0C088000787FE4F6D8FD758107020800BF
:10080000E4F5A07F381208641208557F01120864CD
:100810001208557F101208641208557F0C120864E4
:100820001208557F301208721208557F481208725C
:100830001208557F651208721208557F6C120872F3
:100840001208557F6C1208721208557F3012087218
:0508500012085580AE06
:0E0864008FA0C290C291D292120855C2922269
:0E0872008FA0D290C291D292120855C292224B
:0E085500E4FFFE0FBF00010EBE2EF8BFE0F55F
:010863002272
:00000001FF
